{
  "_format": "hh-sol-artifact-1",
  "contractName": "L2fiMarket",
  "sourceName": "contracts/L2fiMarket.sol",
  "abi": [
    {
      "anonymous": false,
      "inputs": [
        {
          "indexed": false,
          "internalType": "address",
          "name": "previousAdmin",
          "type": "address"
        },
        {
          "indexed": false,
          "internalType": "address",
          "name": "newAdmin",
          "type": "address"
        }
      ],
      "name": "AdminChanged",
      "type": "event"
    },
    {
      "anonymous": false,
      "inputs": [
        {
          "indexed": true,
          "internalType": "address",
          "name": "beacon",
          "type": "address"
        }
      ],
      "name": "BeaconUpgraded",
      "type": "event"
    },
    {
      "anonymous": false,
      "inputs": [
        {
          "indexed": true,
          "internalType": "uint256",
          "name": "orderId",
          "type": "uint256"
        }
      ],
      "name": "CancelOrder",
      "type": "event"
    },
    {
      "anonymous": false,
      "inputs": [
        {
          "indexed": false,
          "internalType": "uint8",
          "name": "version",
          "type": "uint8"
        }
      ],
      "name": "Initialized",
      "type": "event"
    },
    {
      "anonymous": false,
      "inputs": [
        {
          "indexed": true,
          "internalType": "uint256",
          "name": "orderId",
          "type": "uint256"
        },
        {
          "indexed": false,
          "internalType": "address",
          "name": "owner",
          "type": "address"
        },
        {
          "indexed": false,
          "internalType": "uint256",
          "name": "optionAmount",
          "type": "uint256"
        },
        {
          "indexed": false,
          "internalType": "bool",
          "name": "isBuy",
          "type": "bool"
        }
      ],
      "name": "MakeOrder",
      "type": "event"
    },
    {
      "anonymous": false,
      "inputs": [
        {
          "indexed": true,
          "internalType": "uint256",
          "name": "makerOrderId",
          "type": "uint256"
        },
        {
          "indexed": false,
          "internalType": "address",
          "name": "taker",
          "type": "address"
        },
        {
          "indexed": false,
          "internalType": "uint256",
          "name": "optionAmount",
          "type": "uint256"
        }
      ],
      "name": "MatchOrder",
      "type": "event"
    },
    {
      "anonymous": false,
      "inputs": [
        {
          "indexed": false,
          "internalType": "uint256",
          "name": "fromOrderId",
          "type": "uint256"
        },
        {
          "indexed": false,
          "internalType": "uint256",
          "name": "toOrderId",
          "type": "uint256"
        }
      ],
      "name": "OpenShortcut",
      "type": "event"
    },
    {
      "anonymous": false,
      "inputs": [
        {
          "indexed": true,
          "internalType": "address",
          "name": "previousOwner",
          "type": "address"
        },
        {
          "indexed": true,
          "internalType": "address",
          "name": "newOwner",
          "type": "address"
        }
      ],
      "name": "OwnershipTransferred",
      "type": "event"
    },
    {
      "anonymous": false,
      "inputs": [
        {
          "indexed": true,
          "internalType": "address",
          "name": "implementation",
          "type": "address"
        }
      ],
      "name": "Upgraded",
      "type": "event"
    },
    {
      "inputs": [],
      "name": "FEE_ONE_PERCENT_PRECISION",
      "outputs": [
        {
          "internalType": "uint256",
          "name": "",
          "type": "uint256"
        }
      ],
      "stateMutability": "view",
      "type": "function"
    },
    {
      "inputs": [
        {
          "internalType": "uint256",
          "name": "_orderId",
          "type": "uint256"
        }
      ],
      "name": "cancelOrder",
      "outputs": [],
      "stateMutability": "nonpayable",
      "type": "function"
    },
    {
      "inputs": [],
      "name": "closeTime",
      "outputs": [
        {
          "internalType": "uint256",
          "name": "",
          "type": "uint256"
        }
      ],
      "stateMutability": "view",
      "type": "function"
    },
    {
      "inputs": [],
      "name": "downsizingScale",
      "outputs": [
        {
          "internalType": "uint256",
          "name": "",
          "type": "uint256"
        }
      ],
      "stateMutability": "view",
      "type": "function"
    },
    {
      "inputs": [
        {
          "internalType": "uint256",
          "name": "_amount",
          "type": "uint256"
        }
      ],
      "name": "feeCallback",
      "outputs": [],
      "stateMutability": "nonpayable",
      "type": "function"
    },
    {
      "inputs": [],
      "name": "feeCollector",
      "outputs": [
        {
          "internalType": "address",
          "name": "",
          "type": "address"
        }
      ],
      "stateMutability": "view",
      "type": "function"
    },
    {
      "inputs": [
        {
          "internalType": "uint256",
          "name": "maxCount",
          "type": "uint256"
        }
      ],
      "name": "getOrderbook",
      "outputs": [
        {
          "components": [
            {
              "internalType": "uint16",
              "name": "tick",
              "type": "uint16"
            },
            {
              "internalType": "uint256",
              "name": "amount",
              "type": "uint256"
            }
          ],
          "internalType": "struct L2fiMarket.TickView[]",
          "name": "buyTicks",
          "type": "tuple[]"
        },
        {
          "components": [
            {
              "internalType": "uint16",
              "name": "tick",
              "type": "uint16"
            },
            {
              "internalType": "uint256",
              "name": "amount",
              "type": "uint256"
            }
          ],
          "internalType": "struct L2fiMarket.TickView[]",
          "name": "sellTicks",
          "type": "tuple[]"
        }
      ],
      "stateMutability": "view",
      "type": "function"
    },
    {
      "inputs": [
        {
          "internalType": "address",
          "name": "_optionTokens",
          "type": "address"
        },
        {
          "internalType": "uint256",
          "name": "_optionTokenId",
          "type": "uint256"
        },
        {
          "internalType": "address",
          "name": "_quoteToken",
          "type": "address"
        },
        {
          "internalType": "address",
          "name": "_router",
          "type": "address"
        },
        {
          "internalType": "address",
          "name": "_feeCollector",
          "type": "address"
        },
        {
          "internalType": "address",
          "name": "_tickPriceModel",
          "type": "address"
        },
        {
          "internalType": "uint256",
          "name": "_downsizingScale",
          "type": "uint256"
        },
        {
          "internalType": "uint256",
          "name": "_openTime",
          "type": "uint256"
        },
        {
          "internalType": "uint256",
          "name": "_closeTime",
          "type": "uint256"
        },
        {
          "internalType": "uint256",
          "name": "_minimumOrderAmount",
          "type": "uint256"
        }
      ],
      "name": "initialize",
      "outputs": [],
      "stateMutability": "nonpayable",
      "type": "function"
    },
    {
      "inputs": [],
      "name": "makerFee",
      "outputs": [
        {
          "internalType": "int256",
          "name": "",
          "type": "int256"
        }
      ],
      "stateMutability": "view",
      "type": "function"
    },
    {
      "inputs": [],
      "name": "minimumOrderAmount",
      "outputs": [
        {
          "internalType": "uint256",
          "name": "",
          "type": "uint256"
        }
      ],
      "stateMutability": "view",
      "type": "function"
    },
    {
      "inputs": [
        {
          "internalType": "uint256",
          "name": "",
          "type": "uint256"
        }
      ],
      "name": "nextOrderIds",
      "outputs": [
        {
          "internalType": "uint256",
          "name": "",
          "type": "uint256"
        }
      ],
      "stateMutability": "view",
      "type": "function"
    },
    {
      "inputs": [
        {
          "internalType": "address",
          "name": "",
          "type": "address"
        },
        {
          "internalType": "address",
          "name": "",
          "type": "address"
        },
        {
          "internalType": "uint256[]",
          "name": "",
          "type": "uint256[]"
        },
        {
          "internalType": "uint256[]",
          "name": "",
          "type": "uint256[]"
        },
        {
          "internalType": "bytes",
          "name": "",
          "type": "bytes"
        }
      ],
      "name": "onERC1155BatchReceived",
      "outputs": [
        {
          "internalType": "bytes4",
          "name": "",
          "type": "bytes4"
        }
      ],
      "stateMutability": "nonpayable",
      "type": "function"
    },
    {
      "inputs": [
        {
          "internalType": "address",
          "name": "",
          "type": "address"
        },
        {
          "internalType": "address",
          "name": "",
          "type": "address"
        },
        {
          "internalType": "uint256",
          "name": "",
          "type": "uint256"
        },
        {
          "internalType": "uint256",
          "name": "",
          "type": "uint256"
        },
        {
          "internalType": "bytes",
          "name": "",
          "type": "bytes"
        }
      ],
      "name": "onERC1155Received",
      "outputs": [
        {
          "internalType": "bytes4",
          "name": "",
          "type": "bytes4"
        }
      ],
      "stateMutability": "nonpayable",
      "type": "function"
    },
    {
      "inputs": [
        {
          "internalType": "uint256",
          "name": "_fromOrderId",
          "type": "uint256"
        },
        {
          "internalType": "uint256",
          "name": "_toOrderId",
          "type": "uint256"
        }
      ],
      "name": "openShortcut",
      "outputs": [],
      "stateMutability": "nonpayable",
      "type": "function"
    },
    {
      "inputs": [],
      "name": "openTime",
      "outputs": [
        {
          "internalType": "uint256",
          "name": "",
          "type": "uint256"
        }
      ],
      "stateMutability": "view",
      "type": "function"
    },
    {
      "inputs": [],
      "name": "optionTokenId",
      "outputs": [
        {
          "internalType": "uint256",
          "name": "",
          "type": "uint256"
        }
      ],
      "stateMutability": "view",
      "type": "function"
    },
    {
      "inputs": [],
      "name": "optionTokens",
      "outputs": [
        {
          "internalType": "contract IERC1155Upgradeable",
          "name": "",
          "type": "address"
        }
      ],
      "stateMutability": "view",
      "type": "function"
    },
    {
      "inputs": [
        {
          "internalType": "uint256",
          "name": "",
          "type": "uint256"
        }
      ],
      "name": "orders",
      "outputs": [
        {
          "internalType": "address",
          "name": "owner",
          "type": "address"
        },
        {
          "internalType": "uint96",
          "name": "downsizedOptionAmount",
          "type": "uint96"
        }
      ],
      "stateMutability": "view",
      "type": "function"
    },
    {
      "inputs": [],
      "name": "owner",
      "outputs": [
        {
          "internalType": "address",
          "name": "",
          "type": "address"
        }
      ],
      "stateMutability": "view",
      "type": "function"
    },
    {
      "inputs": [
        {
          "components": [
            {
              "internalType": "uint256",
              "name": "optionAmount",
              "type": "uint256"
            },
            {
              "internalType": "uint16",
              "name": "tick",
              "type": "uint16"
            },
            {
              "internalType": "bool",
              "name": "isBuy",
              "type": "bool"
            }
          ],
          "internalType": "struct IMarket.OrderParam",
          "name": "_orderParam",
          "type": "tuple"
        }
      ],
      "name": "placeBuyOrder",
      "outputs": [],
      "stateMutability": "nonpayable",
      "type": "function"
    },
    {
      "inputs": [
        {
          "components": [
            {
              "internalType": "uint256",
              "name": "optionAmount",
              "type": "uint256"
            },
            {
              "internalType": "uint16",
              "name": "tick",
              "type": "uint16"
            },
            {
              "internalType": "bool",
              "name": "isBuy",
              "type": "bool"
            }
          ],
          "internalType": "struct IMarket.OrderParam",
          "name": "_orderParam",
          "type": "tuple"
        }
      ],
      "name": "placeSellOrder",
      "outputs": [],
      "stateMutability": "nonpayable",
      "type": "function"
    },
    {
      "inputs": [],
      "name": "proxiableUUID",
      "outputs": [
        {
          "internalType": "bytes32",
          "name": "",
          "type": "bytes32"
        }
      ],
      "stateMutability": "view",
      "type": "function"
    },
    {
      "inputs": [],
      "name": "quoteToken",
      "outputs": [
        {
          "internalType": "contract IERC20Upgradeable",
          "name": "",
          "type": "address"
        }
      ],
      "stateMutability": "view",
      "type": "function"
    },
    {
      "inputs": [],
      "name": "renounceOwnership",
      "outputs": [],
      "stateMutability": "nonpayable",
      "type": "function"
    },
    {
      "inputs": [],
      "name": "router",
      "outputs": [
        {
          "internalType": "address",
          "name": "",
          "type": "address"
        }
      ],
      "stateMutability": "view",
      "type": "function"
    },
    {
      "inputs": [
        {
          "internalType": "address",
          "name": "_caller",
          "type": "address"
        }
      ],
      "name": "setCaller",
      "outputs": [],
      "stateMutability": "nonpayable",
      "type": "function"
    },
    {
      "inputs": [
        {
          "internalType": "uint256",
          "name": "_closeTime",
          "type": "uint256"
        }
      ],
      "name": "setCloseTime",
      "outputs": [],
      "stateMutability": "nonpayable",
      "type": "function"
    },
    {
      "inputs": [
        {
          "internalType": "int256",
          "name": "_makerFee",
          "type": "int256"
        }
      ],
      "name": "setMakerFee",
      "outputs": [],
      "stateMutability": "nonpayable",
      "type": "function"
    },
    {
      "inputs": [
        {
          "internalType": "uint256",
          "name": "_minimumOrderAmount",
          "type": "uint256"
        }
      ],
      "name": "setMinimumOrderAmount",
      "outputs": [],
      "stateMutability": "nonpayable",
      "type": "function"
    },
    {
      "inputs": [
        {
          "internalType": "uint256",
          "name": "_openTime",
          "type": "uint256"
        }
      ],
      "name": "setOpenTime",
      "outputs": [],
      "stateMutability": "nonpayable",
      "type": "function"
    },
    {
      "inputs": [
        {
          "internalType": "int256",
          "name": "_takerFee",
          "type": "int256"
        }
      ],
      "name": "setTakerFee",
      "outputs": [],
      "stateMutability": "nonpayable",
      "type": "function"
    },
    {
      "inputs": [],
      "name": "settleDebt",
      "outputs": [],
      "stateMutability": "nonpayable",
      "type": "function"
    },
    {
      "inputs": [],
      "name": "slot",
      "outputs": [
        {
          "internalType": "address",
          "name": "caller",
          "type": "address"
        },
        {
          "internalType": "uint16",
          "name": "maxBuyTick",
          "type": "uint16"
        },
        {
          "internalType": "uint16",
          "name": "minSellTick",
          "type": "uint16"
        },
        {
          "internalType": "int256",
          "name": "optionTokenDebt",
          "type": "int256"
        },
        {
          "internalType": "int256",
          "name": "quoteTokenDebt",
          "type": "int256"
        },
        {
          "internalType": "uint256",
          "name": "feePayable",
          "type": "uint256"
        }
      ],
      "stateMutability": "view",
      "type": "function"
    },
    {
      "inputs": [
        {
          "internalType": "bytes4",
          "name": "interfaceId",
          "type": "bytes4"
        }
      ],
      "name": "supportsInterface",
      "outputs": [
        {
          "internalType": "bool",
          "name": "",
          "type": "bool"
        }
      ],
      "stateMutability": "view",
      "type": "function"
    },
    {
      "inputs": [],
      "name": "takerFee",
      "outputs": [
        {
          "internalType": "int256",
          "name": "",
          "type": "int256"
        }
      ],
      "stateMutability": "view",
      "type": "function"
    },
    {
      "inputs": [
        {
          "internalType": "uint8",
          "name": "",
          "type": "uint8"
        }
      ],
      "name": "tickBitMaps",
      "outputs": [
        {
          "internalType": "uint256",
          "name": "",
          "type": "uint256"
        }
      ],
      "stateMutability": "view",
      "type": "function"
    },
    {
      "inputs": [
        {
          "internalType": "uint16",
          "name": "",
          "type": "uint16"
        }
      ],
      "name": "tickInfos",
      "outputs": [
        {
          "internalType": "uint64",
          "name": "first",
          "type": "uint64"
        },
        {
          "internalType": "uint64",
          "name": "last",
          "type": "uint64"
        },
        {
          "internalType": "uint96",
          "name": "totalDownsizedOptionAmount",
          "type": "uint96"
        }
      ],
      "stateMutability": "view",
      "type": "function"
    },
    {
      "inputs": [],
      "name": "tickPriceModel",
      "outputs": [
        {
          "internalType": "contract ITickPriceModel",
          "name": "",
          "type": "address"
        }
      ],
      "stateMutability": "view",
      "type": "function"
    },
    {
      "inputs": [
        {
          "internalType": "address",
          "name": "newOwner",
          "type": "address"
        }
      ],
      "name": "transferOwnership",
      "outputs": [],
      "stateMutability": "nonpayable",
      "type": "function"
    },
    {
      "inputs": [
        {
          "internalType": "address",
          "name": "newImplementation",
          "type": "address"
        }
      ],
      "name": "upgradeTo",
      "outputs": [],
      "stateMutability": "nonpayable",
      "type": "function"
    },
    {
      "inputs": [
        {
          "internalType": "address",
          "name": "newImplementation",
          "type": "address"
        },
        {
          "internalType": "bytes",
          "name": "data",
          "type": "bytes"
        }
      ],
      "name": "upgradeToAndCall",
      "outputs": [],
      "stateMutability": "payable",
      "type": "function"
    }
  ],
  "bytecode": "0x60a06040523060805234801561001457600080fd5b506080516140e161004c60003960008181610d2801528181610d6801528181610e1301528181610e53015261125301526140e16000f3fe6080604052600436106102465760003560e01c8063974d023611610139578063d56861f6116100b6578063f2fde38b1161007a578063f2fde38b14610805578063f5d3306414610825578063f60ba3381461083c578063f887ea401461085c578063f940d68a1461087d578063fc741c7c1461089457600080fd5b8063d56861f614610762578063dfb2804f14610782578063e6a29eb014610799578063f13c7e40146107b9578063f23a6e61146107d957600080fd5b8063bc197c81116100fd578063bc197c81146106a6578063beb92f55146106eb578063c415b95c1461070b578063c98673b21461072c578063ccf27d6b1461074c57600080fd5b8063974d0236146105bc578063a26d524b146105ea578063a85c38ef1461060a578063aafb96b61461067a578063b42568881461068f57600080fd5b806343f0179b116101c75780635d2c8efc1161018b5780635d2c8efc146105315780635e85ba5614610551578063627749e614610572578063715018a6146105895780638da5cb5b1461059e57600080fd5b806343f0179b146104965780634f1ef286146104bb578063514fcac7146104ce57806351d3c332146104ee57806352d1902d1461051c57600080fd5b8063217a4b701161020e578063217a4b70146103ce57806327fa6738146104075780633659cfe6146104355780633be3a3f514610455578063429bbc3b1461047557600080fd5b806301ffc9a71461024b57806305ea85931461028057806313576b5a146102a25780631a88bc66146103265780632021cdd0146103ae575b600080fd5b34801561025757600080fd5b5061026b61026636600461372f565b6108ab565b60405190151581526020015b60405180910390f35b34801561028c57600080fd5b506102a061029b366004613759565b6108e2565b005b3480156102ae57600080fd5b506102f76102bd366004613784565b610170602052600090815260409020546001600160401b0380821691600160401b810490911690600160801b90046001600160601b031683565b604080516001600160401b0394851681529390921660208401526001600160601b031690820152606001610277565b34801561033257600080fd5b5061016b5461016c5461016d5461016e5461036f936001600160a01b0381169361ffff600160a01b8304811694600160b01b909304169290919086565b604080516001600160a01b0397909716875261ffff958616602088015293909416928501929092526060840152608083015260a082015260c001610277565b3480156103ba57600080fd5b506102a06103c93660046137b6565b610939565b3480156103da57600080fd5b50610161546103ef906001600160a01b031681565b6040516001600160a01b039091168152602001610277565b34801561041357600080fd5b50610427610422366004613759565b610ae6565b604051610277929190613897565b34801561044157600080fd5b506102a06104503660046138bc565b610d1d565b34801561046157600080fd5b506102a0610470366004613759565b610dfa565b34801561048157600080fd5b50610160546103ef906001600160a01b031681565b3480156104a257600080fd5b506104ad6101675481565b604051908152602001610277565b6102a06104c936600461398c565b610e08565b3480156104da57600080fd5b506102a06104e9366004613759565b610ed9565b3480156104fa57600080fd5b506104ad610509366004613759565b6101726020526000908152604090205481565b34801561052857600080fd5b506104ad611246565b34801561053d57600080fd5b506102a061054c366004613759565b6112f9565b34801561055d57600080fd5b50610162546103ef906001600160a01b031681565b34801561057e57600080fd5b506104ad6101695481565b34801561059557600080fd5b506102a0611307565b3480156105aa57600080fd5b506033546001600160a01b03166103ef565b3480156105c857600080fd5b506104ad6105d73660046139d9565b61016f6020526000908152604090205481565b3480156105f657600080fd5b506102a0610605366004613a0a565b61131b565b34801561061657600080fd5b50610653610625366004613759565b610171602052600090815260409020546001600160a01b03811690600160a01b90046001600160601b031682565b604080516001600160a01b0390931683526001600160601b03909116602083015201610277565b34801561068657600080fd5b506102a06115bf565b34801561069b57600080fd5b506104ad6101685481565b3480156106b257600080fd5b506106d26106c1366004613ae4565b63bc197c8160e01b95945050505050565b6040516001600160e01b03199091168152602001610277565b3480156106f757600080fd5b506102a06107063660046138bc565b61181d565b34801561071757600080fd5b50610164546103ef906001600160a01b031681565b34801561073857600080fd5b506102a0610747366004613a0a565b6118a4565b34801561075857600080fd5b506104ad61271081565b34801561076e57600080fd5b506102a061077d366004613759565b611b27565b34801561078e57600080fd5b506104ad6101655481565b3480156107a557600080fd5b506102a06107b4366004613b8d565b611c41565b3480156107c557600080fd5b506102a06107d4366004613759565b611ed1565b3480156107e557600080fd5b506106d26107f4366004613baf565b63f23a6e6160e01b95945050505050565b34801561081157600080fd5b506102a06108203660046138bc565b611feb565b34801561083157600080fd5b506104ad61015f5481565b34801561084857600080fd5b506102a0610857366004613759565b612061565b34801561086857600080fd5b50610163546103ef906001600160a01b031681565b34801561088957600080fd5b506104ad61016a5481565b3480156108a057600080fd5b506104ad6101665481565b60006001600160e01b03198216630271189760e51b14806108dc57506301ffc9a760e01b6001600160e01b03198316145b92915050565b610164546001600160a01b0316331461092c5760405162461bcd60e51b81526020600482015260076024820152664f6e6c7920464360c81b60448201526064015b60405180910390fd5b610936338261206f565b50565b600054610100900460ff16158080156109595750600054600160ff909116105b806109735750303b158015610973575060005460ff166001145b6109d65760405162461bcd60e51b815260206004820152602e60248201527f496e697469616c697a61626c653a20636f6e747261637420697320616c72656160448201526d191e481a5b9a5d1a585b1a5e995960921b6064820152608401610923565b6000805460ff1916600117905580156109f9576000805461ff0019166101001790555b610a01612090565b61016080546001600160a01b03808e166001600160a01b03199283161790925561015f8c905561016180548c841690831617905561016380548b841690831617905561016480548a841690831617905561016280549289169290911691909117905561016585905561016884905561016983905561016a82905561016b805463ffffffff60a01b191661ffff60b01b1790558015610ad9576000805461ff0019169055604051600181527f7f26b83ff96e1f2b6a682f133852f6798a09c465da95921460cefb38474024989060200160405180910390a15b5050505050505050505050565b606080826001600160401b03811115610b0157610b016138d7565b604051908082528060200260200182016040528015610b4657816020015b6040805180820190915260008082526020820152815260200190600190039081610b1f5790505b509150826001600160401b03811115610b6157610b616138d7565b604051908082528060200260200182016040528015610ba657816020015b6040805180820190915260008082526020820152815260200190600190039081610b7f5790505b5061016b5490915061ffff600160a01b8204811691600160b01b90041660005b85811015610c6a578015610be357610be061016f846120bf565b92505b61ffff8316610bf157610c6a565b60408051808201825261ffff8516808252610165546000918252610170602090815293909120549192830191610c379190600160801b90046001600160601b0316613c29565b815250858281518110610c4c57610c4c613c48565b60200260200101819052508080610c6290613c5e565b915050610bc6565b5060005b85811015610d15578015610c8b57610c8861016f83612154565b91505b61ffff8281161415610c9c57610d15565b60408051808201825261ffff8416808252610165546000918252610170602090815293909120549192830191610ce29190600160801b90046001600160601b0316613c29565b815250848281518110610cf757610cf7613c48565b60200260200101819052508080610d0d90613c5e565b915050610c6e565b505050915091565b306001600160a01b037f0000000000000000000000000000000000000000000000000000000000000000161415610d665760405162461bcd60e51b815260040161092390613c79565b7f00000000000000000000000000000000000000000000000000000000000000006001600160a01b0316610daf60008051602061408e833981519152546001600160a01b031690565b6001600160a01b031614610dd55760405162461bcd60e51b815260040161092390613cc5565b610dde816121e2565b60408051600080825260208201909252610936918391906121ea565b610e0261235a565b61016955565b306001600160a01b037f0000000000000000000000000000000000000000000000000000000000000000161415610e515760405162461bcd60e51b815260040161092390613c79565b7f00000000000000000000000000000000000000000000000000000000000000006001600160a01b0316610e9a60008051602061408e833981519152546001600160a01b031690565b6001600160a01b031614610ec05760405162461bcd60e51b815260040161092390613cc5565b610ec9826121e2565b610ed5828260016121ea565b5050565b610163546001600160a01b03163314610ef157600080fd5b6000818152610171602090815260408083208151808301909252546001600160a01b0381168252600160a01b90046001600160601b031691810182905261016554909260f085901c929091610f4591613c29565b905042610168541115610f8e5760405162461bcd60e51b8152602060048201526011602482015270139bdd081bdc195b9959081b585c9ad95d607a1b6044820152606401610923565b61016b5483516001600160a01b03908116911614610fda5760405162461bcd60e51b81526020600482015260096024820152682737ba1037bbb732b960b91b6044820152606401610923565b6000811161101a5760405162461bcd60e51b815260206004820152600d60248201526c24b73b30b634b21037b93232b960991b6044820152606401610923565b61016b5461ffff600160b01b90910481169083161061105a5761103c816123b4565b61016c805460009061104f908490613d11565b909155506110d49050565b61016b5461ffff600160a01b90910481169083161161109c57611089611084828461016654612422565b6123b4565b61016d805460009061104f908490613d11565b60405162461bcd60e51b815260206004820152600d60248201526c24b73b30b634b21037b93232b960991b6044820152606401610923565b61ffff82166000908152610170602090815260409091209084015181548290601090611111908490600160801b90046001600160601b0316613d52565b82546101009290920a6001600160601b038181021990931691831602179091558254600160801b900416151590506112065761114f61016f846124e8565b8054600160401b81046001600160401b031667ffffffffffffffff1990911617815561016b54600160a01b900461ffff90811690841614156111be5761119761016f846120bf565b61016b805461ffff92909216600160a01b0261ffff60a01b19909216919091179055611206565b61016b5461ffff848116600160b01b909204161415611206576111e361016f84612154565b61016b805461ffff92909216600160b01b0261ffff60b01b199092169190911790555b50600084815261017160205260408082208290555185917f935c9ad2f1fda9d7eae0d2a512f1521cb7190ee06165414e722366a65975fb6b91a250505050565b6000306001600160a01b037f000000000000000000000000000000000000000000000000000000000000000016146112e65760405162461bcd60e51b815260206004820152603860248201527f555550535570677261646561626c653a206d757374206e6f742062652063616c60448201527f6c6564207468726f7567682064656c656761746563616c6c00000000000000006064820152608401610923565b5060008051602061408e83398151915290565b61130161235a565b61016a55565b61130f61235a565b6113196000612539565b565b610163546001600160a01b0316331461133357600080fd5b604081015115156001146113795760405162461bcd60e51b815260206004820152600d60248201526c2737ba10313abc9037b93232b960991b6044820152606401610923565b61016a54815110156113c45760405162461bcd60e51b8152602060048201526014602482015273155b99195c881b5a5b9a5b5d5b48185b5bdd5b9d60621b6044820152606401610923565b4261016854111580156113d957504261016954115b6114155760405162461bcd60e51b815260206004820152600d60248201526c10db1bdcd959081b585c9ad95d609a1b6044820152606401610923565b600061142d8260000151836020015161016754612422565b610161546040516370a0823160e01b815230600482015291925082916001600160a01b03909116906370a0823190602401602060405180830381865afa15801561147b573d6000803e3d6000fd5b505050506040513d601f19601f8201168201806040525081019061149f9190613d7a565b101561153d57610163546101615461016b54604051634aee675360e01b81526001600160a01b039283166004820152908216602482015260448101849052911690634aee675390606401600060405180830381600087803b15801561150357600080fd5b505af1158015611517573d6000803e3d6000fd5b50505050611524816123b4565b61016d8054600090611537908490613d11565b90915550505b505b61016b54602082015161ffff600160b01b90920482169116108015906115655750805115155b156115af5761016b54600160b01b900461ffff1660008181526101706020526040812054909161159d916001600160401b031661258b565b90506115a982826125ae565b5061153f565b8051156109365761093681612a62565b610163546001600160a01b031633146115d757600080fd5b61016e5415611656576101645461016b5461016e54604051631dc1a8e960e11b81526001600160a01b0392831660048201526024810191909152911690633b8351d290604401600060405180830381600087803b15801561163757600080fd5b505af115801561164b573d6000803e3d6000fd5b5050600061016e5550505b61016c5460001361168a5761016b5461016c54611685916001600160a01b03169061168090612d43565b612d95565b61172b565b6101635461015f5461016b5461016c546001600160a01b039384169363420aa07b939216906116c4906116bf90600019613d93565b612d43565b6040516001600160e01b031960e086901b16815260048101939093526001600160a01b0390911660248301526044820152606401600060405180830381600087803b15801561171257600080fd5b505af1158015611726573d6000803e3d6000fd5b505050505b600061016c81905561016d54126117655761016b5461016d54611760916001600160a01b03169061175b90612d43565b61206f565b611804565b610163546101615461016b5461016d546001600160a01b0393841693634aee675393811692169061179c906116bf90600019613d93565b6040516001600160e01b031960e086901b1681526001600160a01b0393841660048201529290911660248301526044820152606401600060405180830381600087803b1580156117eb57600080fd5b505af11580156117ff573d6000803e3d6000fd5b505050505b600061016d5561016b80546001600160a01b0319169055565b610163546001600160a01b0316331461183557600080fd5b61016b546001600160a01b0316156118815760405162461bcd60e51b815260206004820152600f60248201526e5265656e7472616e6379206c6f636b60881b6044820152606401610923565b61016b80546001600160a01b0319166001600160a01b0392909216919091179055565b610163546001600160a01b031633146118bc57600080fd5b6040810151156118ff5760405162461bcd60e51b815260206004820152600e60248201526d2737ba1039b2b6361037b93232b960911b6044820152606401610923565b61016a548151101561194a5760405162461bcd60e51b8152602060048201526014602482015273155b99195c881b5a5b9a5b5d5b48185b5bdd5b9d60621b6044820152606401610923565b42610168541115801561195f57504261016954115b61199b5760405162461bcd60e51b815260206004820152600d60248201526c10db1bdcd959081b585c9ad95d609a1b6044820152606401610923565b80516101605461015f54604051627eeac760e11b815230600482015260248101919091526001600160a01b039091169062fdd58e90604401602060405180830381865afa1580156119f0573d6000803e3d6000fd5b505050506040513d601f19601f82011682018060405250810190611a149190613d7a565b1015611ab7576101635461015f5461016b54835160405163420aa07b60e01b815260048101939093526001600160a01b03918216602484015260448301529091169063420aa07b90606401600060405180830381600087803b158015611a7957600080fd5b505af1158015611a8d573d6000803e3d6000fd5b50505050611a9e81600001516123b4565b61016c8054600090611ab1908490613d11565b90915550505b61016b54602082015161ffff600160a01b9092048216911611801590611add5750805115155b156115af5761016b54600160a01b900461ffff16600081815261017060205260408120549091611b15916001600160401b031661258b565b9050611b2182826125ae565b50611ab7565b611b2f61235a565b611b3f6110846127106064613c29565b8113158015611b685750611b596110846127106064613c29565b611b6582600019613d93565b13155b611ba05760405162461bcd60e51b81526020600482015260096024820152684f766572203130302560b81b6044820152606401610923565b42610168541180611bb357504261016954105b611bef5760405162461bcd60e51b815260206004820152600d60248201526c13dc195b9959081b585c9ad95d609a1b6044820152606401610923565b60006101675482611c009190613d11565b1215611c3b5760405162461bcd60e51b815260206004820152600a602482015269139bc81919599a58da5d60b21b6044820152606401610923565b61016655565b60f082811c90839083901c8214611c915760405162461bcd60e51b81526020600482015260146024820152734e6f742073616d65207469636b206f726465727360601b6044820152606401610923565b828410611cd85760405162461bcd60e51b8152602060048201526015602482015274546f206973207570706572207468616e2066726f6d60581b6044820152606401610923565b600084815261017260205260409020548311611d365760405162461bcd60e51b815260206004820152601960248201527f546f206973207570706572207468616e206f726967696e616c000000000000006044820152606401610923565b61ffff8216600081815261017060205260409020548591611d5f916001600160401b031661258b565b11158015611d9a575061ffff8216600081815261017060205260409020548491611d9891600160401b90046001600160401b031661258b565b115b611dd95760405162461bcd60e51b815260206004820152601060248201526f125b9d985b1a59081bdc99195c881a5960821b6044820152606401610923565b5b82811015611e7f576000818152610172602052604090205415611e0c5760009081526101726020526040902054611dda565b60008181526101716020526040902054600160a01b90046001600160601b031615611e6d5760405162461bcd60e51b81526020600482015260116024820152702ab731b0b731b2b63632b21037b93232b960791b6044820152606401610923565b80611e7781613c5e565b915050611dda565b6000848152610172602090815260409182902083905581518681529081018390527f320587f20a044759c19eea7c3f679a98242272e108f3be85c0137bf3bbe3ee71910160405180910390a150505050565b611ed961235a565b611ee96110846127106064613c29565b8113158015611f125750611f036110846127106064613c29565b611f0f82600019613d93565b13155b611f4a5760405162461bcd60e51b81526020600482015260096024820152684f766572203130302560b81b6044820152606401610923565b42610168541180611f5d57504261016954105b611f995760405162461bcd60e51b815260206004820152600d60248201526c13dc195b9959081b585c9ad95d609a1b6044820152606401610923565b60008161016654611faa9190613d11565b1215611fe55760405162461bcd60e51b815260206004820152600a602482015269139bc81919599a58da5d60b21b6044820152606401610923565b61016755565b611ff361235a565b6001600160a01b0381166120585760405162461bcd60e51b815260206004820152602660248201527f4f776e61626c653a206e6577206f776e657220697320746865207a65726f206160448201526564647265737360d01b6064820152608401610923565b61093681612539565b61206961235a565b61016855565b80612078575050565b61016154610ed5906001600160a01b03168383612e28565b600054610100900460ff166120b75760405162461bcd60e51b815260040161092390613e18565b611319612e7a565b60008060006120cd84612eaa565b909250905060006120e5600160ff841681901b613e63565b905060005b5060ff83166000908152602087905260409020548116806121315760ff841661211a5760009450505050506108dc565b600019915061212a600185613e7a565b93506120ea565b600061213c82612ec7565b90506121488582612fb7565b98975050505050505050565b600080600061216284612eaa565b90925090506000600160ff831681901b9061217d9082613e63565b6121879190613e9d565b19905060005b5060ff83166000908152602087905260409020548116806121d75760ff848116106121c05761ffff9450505050506108dc565b60001991506121d0846001613eb5565b935061218d565b600061213c82612fce565b61093661235a565b7f4910fdfa16fed3260ed0e7147f7cc6da11a60208b5b9406d12a635614ffd91435460ff16156122225761221d83613101565b505050565b826001600160a01b03166352d1902d6040518163ffffffff1660e01b8152600401602060405180830381865afa92505050801561227c575060408051601f3d908101601f1916820190925261227991810190613d7a565b60015b6122df5760405162461bcd60e51b815260206004820152602e60248201527f45524331393637557067726164653a206e657720696d706c656d656e7461746960448201526d6f6e206973206e6f74205555505360901b6064820152608401610923565b60008051602061408e833981519152811461234e5760405162461bcd60e51b815260206004820152602960248201527f45524331393637557067726164653a20756e737570706f727465642070726f786044820152681a58589b195555525160ba1b6064820152608401610923565b5061221d83838361319d565b6033546001600160a01b031633146113195760405162461bcd60e51b815260206004820181905260248201527f4f776e61626c653a2063616c6c6572206973206e6f7420746865206f776e65726044820152606401610923565b60006001600160ff1b0382111561241e5760405162461bcd60e51b815260206004820152602860248201527f53616665436173743a2076616c756520646f65736e27742066697420696e2061604482015267371034b73a191a9b60c11b6064820152608401610923565b5090565b6000806124dd6124468461243c6110846127106064613c29565b6116bf9190613d11565b6124536127106064613c29565b61016254604051633c71939960e21b815261ffff891660048201526124d6916001600160a01b03169063f1c64e6490602401602060405180830381865afa1580156124a2573d6000803e3d6000fd5b505050506040513d601f19601f820116820180604052508101906124c69190613d7a565b8990670de0b6b3a76400006131c8565b91906131c8565b9150505b9392505050565b6000806124f483612eaa565b60ff8083166000908152602088905260408120805494965092945060019185169190911b92808416928392909161252c908490613e63565b9091555050505050505050565b603380546001600160a01b038381166001600160a01b0319831681179093556040519116919082907f8be0079c531659141344cd1fd0a4f28419497f9722a3daafe3b4186f6b6457e090600090a35050565b60006124e16001600160401b0383166001600160f01b031960f086901b16613e9d565b6000818152610171602090815260408083208151808301835290546001600160a01b03811682526001600160601b03600160a01b909104811682850190815260f087901c80875261017090955292852061016554935194959294909361261692909116613c29565b90506000816126e157600086815261017260205260409020546126745782546001600160401b031683600061264a83613eda565b91906101000a8154816001600160401b0302191690836001600160401b03160217905550506126d8565b6000868152610172602052604090205461269890612693908890613e63565b613278565b835484906000906126b39084906001600160401b0316613f01565b92506101000a8154816001600160401b0302191690836001600160401b031602179055505b50505050505050565b865182111561275c5750855161016554612704906126ff9083613f42565b6132e0565b6000878152610171602052604090208054601490612733908490600160a01b90046001600160601b0316613d52565b92506101000a8154816001600160601b0302191690836001600160601b031602179055506127aa565b50815481906001600160401b031683600061277683613eda565b82546001600160401b039182166101009390930a928302919092021990911617905550600086815261017160205260408120555b80876000018181516127bc9190613e63565b905250610165546127d1906126ff9083613f42565b835484906010906127f3908490600160801b90046001600160601b0316613d52565b92506101000a8154816001600160601b0302191690836001600160601b031602179055508660400151156128975761282a816123b4565b61016c805460009061283d908490613d11565b92505081905550612855611084828761016754612422565b61016d8054600090612868908490613f56565b92505081905550612892846000015161175b83886101665460001961288d9190613d93565b612422565b6128f7565b6128a0816123b4565b61016c80546000906128b3908490613f56565b925050819055506128d361108482876101675460001961288d9190613d93565b61016d80546000906128e6908490613d11565b909155505083516128f79082612d95565b61292861290f61016754610166546116bf9190613d11565b61291c6127106064613c29565b6124d684896000612422565b61016e805460009061293b908490613e9d565b90915550508254600160801b90046001600160601b0316612a105761296261016f866124e8565b8254600160401b81046001600160401b031667ffffffffffffffff199091161783556040870151156129d15761016b546129aa9061016f90600160b01b900461ffff16612154565b61016b805461ffff92909216600160b01b0261ffff60b01b19909216919091179055612a10565b61016b546129ed9061016f90600160a01b900461ffff166120bf565b61016b805461ffff92909216600160a01b0261ffff60a01b199092169190911790555b61016b54604080516001600160a01b0390921682526020820183905287917f64636e643acfcd8b6a0c9ea156e4bc0c5389e25d3ce734b88644e0653fdd1558910160405180910390a250505050505050565b6020818101805161ffff90811660009081526101709093526040832080549251909392612aa3929190911690600160401b90046001600160401b031661258b565b60008181526101716020526040902061016b5481546001600160a01b0319166001600160a01b039091161781556101655485519293509091612ae8916126ff91613f42565b81546001600160601b0391909116600160a01b026001600160a01b03909116179055604083015115612b56576000612b2c8460000151856020015161016654612422565b9050612b37816123b4565b61016d8054600090612b4a908490613f56565b90915550612b7a915050565b8251612b61906123b4565b61016c8054600090612b74908490613f56565b90915550505b8154600160801b90046001600160601b0316612c4b576020830151612ba29061016f90613348565b82604001518015612bc8575061016b54602084015161ffff600160a01b90920482169116115b15612bf857602083015161016b805461ffff909216600160a01b0261ffff60a01b19909216919091179055612c4b565b8260400151158015612c1f575061016b54602084015161ffff600160b01b90920482169116105b15612c4b57602083015161016b805461ffff909216600160b01b0261ffff60b01b199092169190911790555b610165548351612c5e916126ff91613f42565b82548390601090612c80908490600160801b90046001600160601b0316613f95565b82546001600160601b039182166101009390930a92830291909202199091161790555081546001600160401b03600160401b90910416826008612cc283613eda565b82546001600160401b039182166101009390930a92830291909202199091161790555061016b54835160408086015181516001600160a01b03909416845260208401929092529015159082015281907f4941b61d6ae99c0e7773936962b7864bdaa741e9fbbcf6912f855d0132e4d6049060600160405180910390a2505050565b60008082121561241e5760405162461bcd60e51b815260206004820181905260248201527f53616665436173743a2076616c7565206d75737420626520706f7369746976656044820152606401610923565b80612d9e575050565b6101605461015f54604051637921219560e11b81523060048201526001600160a01b03858116602483015260448201929092526064810184905260a06084820152600060a482015291169063f242432a9060c401600060405180830381600087803b158015612e0c57600080fd5b505af1158015612e20573d6000803e3d6000fd5b505050505050565b604080516001600160a01b038416602482015260448082018490528251808303909101815260649091019091526020810180516001600160e01b031663a9059cbb60e01b17905261221d90849061337e565b600054610100900460ff16612ea15760405162461bcd60e51b815260040161092390613e18565b61131933612539565b60ff600882901c166000612ec061010084613fb7565b9050915091565b6000808211612ed557600080fd5b600160801b8210612ef357608091821c91612ef09082613eb5565b90505b600160401b8210612f1157604091821c91612f0e9082613eb5565b90505b6401000000008210612f3057602091821c91612f2d9082613eb5565b90505b620100008210612f4d57601091821c91612f4a9082613eb5565b90505b6101008210612f6957600891821c91612f669082613eb5565b90505b60108210612f8457600491821c91612f819082613eb5565b90505b60048210612f9f57600291821c91612f9c9082613eb5565b90505b60028210612fb2576108dc600182613eb5565b919050565b60006124e160ff831661ff00600886901b16613fd8565b6000808211612fdc57600080fd5b5060ff6fffffffffffffffffffffffffffffffff82161561300957613002608082613e7a565b9050613011565b608082901c91505b6001600160401b038216156130325761302b604082613e7a565b905061303a565b604082901c91505b63ffffffff82161561305857613051602082613e7a565b9050613060565b602082901c91505b61ffff82161561307c57613075601082613e7a565b9050613084565b601082901c91505b60ff82161561309f57613098600882613e7a565b90506130a7565b600882901c91505b600f8216156130c2576130bb600482613e7a565b90506130ca565b600482901c91505b60038216156130e5576130de600282613e7a565b90506130ed565b600282901c91505b6001821615612fb2576108dc600182613e7a565b6001600160a01b0381163b61316e5760405162461bcd60e51b815260206004820152602d60248201527f455243313936373a206e657720696d706c656d656e746174696f6e206973206e60448201526c1bdd08184818dbdb9d1c9858dd609a1b6064820152608401610923565b60008051602061408e83398151915280546001600160a01b0319166001600160a01b0392909216919091179055565b6131a683613450565b6000825111806131b35750805b1561221d576131c28383613490565b50505050565b600080806000198587098587029250828110838203039150508060001415613203578382816131f9576131f9613f2c565b04925050506124e1565b80841161320f57600080fd5b60008486880960026001871981018816978890046003810283188082028403028082028403028082028403028082028403028082028403029081029092039091026000889003889004909101858311909403939093029303949094049190911702949350505050565b60006001600160401b0382111561241e5760405162461bcd60e51b815260206004820152602660248201527f53616665436173743a2076616c756520646f65736e27742066697420696e203660448201526534206269747360d01b6064820152608401610923565b60006001600160601b0382111561241e5760405162461bcd60e51b815260206004820152602660248201527f53616665436173743a2076616c756520646f65736e27742066697420696e203960448201526536206269747360d01b6064820152608401610923565b60008061335483612eaa565b60ff9182166000908152602096909652604090952080546001969092169590951b17909355505050565b60006133d3826040518060400160405280602081526020017f5361666545524332303a206c6f772d6c6576656c2063616c6c206661696c6564815250856001600160a01b03166135849092919063ffffffff16565b80519091501561221d57808060200190518101906133f19190613ff5565b61221d5760405162461bcd60e51b815260206004820152602a60248201527f5361666545524332303a204552433230206f7065726174696f6e20646964206e6044820152691bdd081cdd58d8d9595960b21b6064820152608401610923565b61345981613101565b6040516001600160a01b038216907fbc7cd75a20ee27fd9adebab32041f755214dbc6bffa90cc0225b39da2e5c2d3b90600090a250565b60606001600160a01b0383163b6134f85760405162461bcd60e51b815260206004820152602660248201527f416464726573733a2064656c65676174652063616c6c20746f206e6f6e2d636f6044820152651b9d1c9858dd60d21b6064820152608401610923565b600080846001600160a01b031684604051613513919061403e565b600060405180830381855af49150503d806000811461354e576040519150601f19603f3d011682016040523d82523d6000602084013e613553565b606091505b509150915061357b82826040518060600160405280602781526020016140ae6027913961359b565b95945050505050565b606061359384846000856135b4565b949350505050565b606083156135aa5750816124e1565b6124e1838361368f565b6060824710156136155760405162461bcd60e51b815260206004820152602660248201527f416464726573733a20696e73756666696369656e742062616c616e636520666f6044820152651c8818d85b1b60d21b6064820152608401610923565b600080866001600160a01b03168587604051613631919061403e565b60006040518083038185875af1925050503d806000811461366e576040519150601f19603f3d011682016040523d82523d6000602084013e613673565b606091505b5091509150613684878383876136b9565b979650505050505050565b81511561369f5781518083602001fd5b8060405162461bcd60e51b8152600401610923919061405a565b6060831561372557825161371e576001600160a01b0385163b61371e5760405162461bcd60e51b815260206004820152601d60248201527f416464726573733a2063616c6c20746f206e6f6e2d636f6e74726163740000006044820152606401610923565b5081613593565b613593838361368f565b60006020828403121561374157600080fd5b81356001600160e01b0319811681146124e157600080fd5b60006020828403121561376b57600080fd5b5035919050565b803561ffff81168114612fb257600080fd5b60006020828403121561379657600080fd5b6124e182613772565b80356001600160a01b0381168114612fb257600080fd5b6000806000806000806000806000806101408b8d0312156137d657600080fd5b6137df8b61379f565b995060208b013598506137f460408c0161379f565b975061380260608c0161379f565b965061381060808c0161379f565b955061381e60a08c0161379f565b945060c08b0135935060e08b013592506101008b013591506101208b013590509295989b9194979a5092959850565b600081518084526020808501945080840160005b8381101561388c578151805161ffff1688528301518388015260409096019590820190600101613861565b509495945050505050565b6040815260006138aa604083018561384d565b828103602084015261357b818561384d565b6000602082840312156138ce57600080fd5b6124e18261379f565b634e487b7160e01b600052604160045260246000fd5b604051601f8201601f191681016001600160401b0381118282101715613915576139156138d7565b604052919050565b600082601f83011261392e57600080fd5b81356001600160401b03811115613947576139476138d7565b61395a601f8201601f19166020016138ed565b81815284602083860101111561396f57600080fd5b816020850160208301376000918101602001919091529392505050565b6000806040838503121561399f57600080fd5b6139a88361379f565b915060208301356001600160401b038111156139c357600080fd5b6139cf8582860161391d565b9150509250929050565b6000602082840312156139eb57600080fd5b813560ff811681146124e157600080fd5b801515811461093657600080fd5b600060608284031215613a1c57600080fd5b604051606081018181106001600160401b0382111715613a3e57613a3e6138d7565b60405282358152613a5160208401613772565b60208201526040830135613a64816139fc565b60408201529392505050565b600082601f830112613a8157600080fd5b813560206001600160401b03821115613a9c57613a9c6138d7565b8160051b613aab8282016138ed565b9283528481018201928281019087851115613ac557600080fd5b83870192505b8483101561368457823582529183019190830190613acb565b600080600080600060a08688031215613afc57600080fd5b613b058661379f565b9450613b136020870161379f565b935060408601356001600160401b0380821115613b2f57600080fd5b613b3b89838a01613a70565b94506060880135915080821115613b5157600080fd5b613b5d89838a01613a70565b93506080880135915080821115613b7357600080fd5b50613b808882890161391d565b9150509295509295909350565b60008060408385031215613ba057600080fd5b50508035926020909101359150565b600080600080600060a08688031215613bc757600080fd5b613bd08661379f565b9450613bde6020870161379f565b9350604086013592506060860135915060808601356001600160401b03811115613c0757600080fd5b613b808882890161391d565b634e487b7160e01b600052601160045260246000fd5b6000816000190483118215151615613c4357613c43613c13565b500290565b634e487b7160e01b600052603260045260246000fd5b6000600019821415613c7257613c72613c13565b5060010190565b6020808252602c908201527f46756e6374696f6e206d7573742062652063616c6c6564207468726f7567682060408201526b19195b1959d85d1958d85b1b60a21b606082015260800190565b6020808252602c908201527f46756e6374696f6e206d7573742062652063616c6c6564207468726f7567682060408201526b6163746976652070726f787960a01b606082015260800190565b600080821280156001600160ff1b0384900385131615613d3357613d33613c13565b600160ff1b8390038412811615613d4c57613d4c613c13565b50500190565b60006001600160601b0383811690831681811015613d7257613d72613c13565b039392505050565b600060208284031215613d8c57600080fd5b5051919050565b60006001600160ff1b0381841382841380821686840486111615613db957613db9613c13565b600160ff1b6000871282811687830589121615613dd857613dd8613c13565b60008712925087820587128484161615613df457613df4613c13565b87850587128184161615613e0a57613e0a613c13565b505050929093029392505050565b6020808252602b908201527f496e697469616c697a61626c653a20636f6e7472616374206973206e6f74206960408201526a6e697469616c697a696e6760a81b606082015260800190565b600082821015613e7557613e75613c13565b500390565b600060ff821660ff841680821015613e9457613e94613c13565b90039392505050565b60008219821115613eb057613eb0613c13565b500190565b600060ff821660ff84168060ff03821115613ed257613ed2613c13565b019392505050565b60006001600160401b0380831681811415613ef757613ef7613c13565b6001019392505050565b60006001600160401b03808316818516808303821115613f2357613f23613c13565b01949350505050565b634e487b7160e01b600052601260045260246000fd5b600082613f5157613f51613f2c565b500490565b60008083128015600160ff1b850184121615613f7457613f74613c13565b6001600160ff1b0384018313811615613f8f57613f8f613c13565b50500390565b60006001600160601b03808316818516808303821115613f2357613f23613c13565b600061ffff80841680613fcc57613fcc613f2c565b92169190910692915050565b600061ffff808316818516808303821115613f2357613f23613c13565b60006020828403121561400757600080fd5b81516124e1816139fc565b60005b8381101561402d578181015183820152602001614015565b838111156131c25750506000910152565b60008251614050818460208701614012565b9190910192915050565b6020815260008251806020840152614079816040850160208701614012565b601f01601f1916919091016040019291505056fe360894a13ba1a3210667c828492db98dca3e2076cc3735a920a3ca505d382bbc416464726573733a206c6f772d6c6576656c2064656c65676174652063616c6c206661696c6564a164736f6c634300080c000a",
  "linkReferences": {},
  "deployedLinkReferences": {}
}